{
  "_format": "hh-sol-artifact-1",
  "contractName": "NFTCollectionFactory",
  "sourceName": "contracts/NFTCollectionFactory.sol",
  "abi": [
    {
      "anonymous": false,
      "inputs": [
        {
          "indexed": true,
          "internalType": "address",
          "name": "owner",
          "type": "address"
        },
        {
          "indexed": false,
          "internalType": "address",
          "name": "collectionAddress",
          "type": "address"
        }
      ],
      "name": "CollectionCreated",
      "type": "event"
    },
    {
      "inputs": [
        {
          "internalType": "string",
          "name": "name",
          "type": "string"
        },
        {
          "internalType": "string",
          "name": "symbol",
          "type": "string"
        }
      ],
      "name": "createCollection",
      "outputs": [],
      "stateMutability": "nonpayable",
      "type": "function"
    },
    {
      "inputs": [
        {
          "internalType": "uint256",
          "name": "collectionIndex",
          "type": "uint256"
        }
      ],
      "name": "deleteCollection",
      "outputs": [],
      "stateMutability": "nonpayable",
      "type": "function"
    },
    {
      "inputs": [
        {
          "internalType": "address",
          "name": "user",
          "type": "address"
        }
      ],
      "name": "getCollectionsByUser",
      "outputs": [
        {
          "internalType": "address[]",
          "name": "",
          "type": "address[]"
        }
      ],
      "stateMutability": "view",
      "type": "function"
    }
  ],
  "bytecode": "0x6080604052348015600f57600080fd5b506131498061001f6000396000f3fe608060405234801561001057600080fd5b50600436106100415760003560e01c8063176b9b751461004657806392b426a314610062578063a42c587a14610092575b600080fd5b610060600480360381019061005b91906104f8565b6100ae565b005b61007c600480360381019061007791906105ce565b610245565b60405161008991906106b9565b60405180910390f35b6100ac60048036038101906100a79190610711565b610311565b005b600082826040516100be90610391565b6100c99291906107bd565b604051809103906000f0801580156100e5573d6000803e3d6000fd5b5090508073ffffffffffffffffffffffffffffffffffffffff1663f2fde38b336040518263ffffffff1660e01b81526004016101219190610803565b600060405180830381600087803b15801561013b57600080fd5b505af115801561014f573d6000803e3d6000fd5b505050506000803373ffffffffffffffffffffffffffffffffffffffff1673ffffffffffffffffffffffffffffffffffffffff168152602001908152602001600020819080600181540180825580915050600190039060005260206000200160009091909190916101000a81548173ffffffffffffffffffffffffffffffffffffffff021916908373ffffffffffffffffffffffffffffffffffffffff1602179055503373ffffffffffffffffffffffffffffffffffffffff167f5d0de243db1669e3a7056744cd715c625f0c1c348736c2c2d53d0ddebff1a6c7826040516102389190610803565b60405180910390a2505050565b60606000808373ffffffffffffffffffffffffffffffffffffffff1673ffffffffffffffffffffffffffffffffffffffff16815260200190815260200160002080548060200260200160405190810160405280929190818152602001828054801561030557602002820191906000526020600020905b8160009054906101000a900473ffffffffffffffffffffffffffffffffffffffff1673ffffffffffffffffffffffffffffffffffffffff16815260200190600101908083116102bb575b50505050509050919050565b6000803373ffffffffffffffffffffffffffffffffffffffff1673ffffffffffffffffffffffffffffffffffffffff16815260200190815260200160002081815481106103615761036061081e565b5b9060005260206000200160006101000a81549073ffffffffffffffffffffffffffffffffffffffff021916905550565b6128c68061084e83390190565b6000604051905090565b600080fd5b600080fd5b600080fd5b600080fd5b6000601f19601f8301169050919050565b7f4e487b7100000000000000000000000000000000000000000000000000000000600052604160045260246000fd5b610405826103bc565b810181811067ffffffffffffffff82111715610424576104236103cd565b5b80604052505050565b600061043761039e565b905061044382826103fc565b919050565b600067ffffffffffffffff821115610463576104626103cd565b5b61046c826103bc565b9050602081019050919050565b82818337600083830152505050565b600061049b61049684610448565b61042d565b9050828152602081018484840111156104b7576104b66103b7565b5b6104c2848285610479565b509392505050565b600082601f8301126104df576104de6103b2565b5b81356104ef848260208601610488565b91505092915050565b6000806040838503121561050f5761050e6103a8565b5b600083013567ffffffffffffffff81111561052d5761052c6103ad565b5b610539858286016104ca565b925050602083013567ffffffffffffffff81111561055a576105596103ad565b5b610566858286016104ca565b9150509250929050565b600073ffffffffffffffffffffffffffffffffffffffff82169050919050565b600061059b82610570565b9050919050565b6105ab81610590565b81146105b657600080fd5b50565b6000813590506105c8816105a2565b92915050565b6000602082840312156105e4576105e36103a8565b5b60006105f2848285016105b9565b91505092915050565b600081519050919050565b600082825260208201905092915050565b6000819050602082019050919050565b61063081610590565b82525050565b60006106428383610627565b60208301905092915050565b6000602082019050919050565b6000610666826105fb565b6106708185610606565b935061067b83610617565b8060005b838110156106ac5781516106938882610636565b975061069e8361064e565b92505060018101905061067f565b5085935050505092915050565b600060208201905081810360008301526106d3818461065b565b905092915050565b6000819050919050565b6106ee816106db565b81146106f957600080fd5b50565b60008135905061070b816106e5565b92915050565b600060208284031215610727576107266103a8565b5b6000610735848285016106fc565b91505092915050565b600081519050919050565b600082825260208201905092915050565b60005b8381101561077857808201518184015260208101905061075d565b60008484015250505050565b600061078f8261073e565b6107998185610749565b93506107a981856020860161075a565b6107b2816103bc565b840191505092915050565b600060408201905081810360008301526107d78185610784565b905081810360208301526107eb8184610784565b90509392505050565b6107fd81610590565b82525050565b600060208201905061081860008301846107f4565b92915050565b7f4e487b7100000000000000000000000000000000000000000000000000000000600052603260045260246000fdfe608060405234801561001057600080fd5b506040516128c63803806128c683398181016040528101906100329190610323565b338282816000908161004491906105bc565b50806001908161005491906105bc565b505050600073ffffffffffffffffffffffffffffffffffffffff168173ffffffffffffffffffffffffffffffffffffffff16036100c95760006040517f1e4fbdf70000000000000000000000000000000000000000000000000000000081526004016100c091906106cf565b60405180910390fd5b6100d8816100e860201b60201c565b50600060078190555050506106ea565b6000600660009054906101000a900473ffffffffffffffffffffffffffffffffffffffff16905081600660006101000a81548173ffffffffffffffffffffffffffffffffffffffff021916908373ffffffffffffffffffffffffffffffffffffffff1602179055508173ffffffffffffffffffffffffffffffffffffffff168173ffffffffffffffffffffffffffffffffffffffff167f8be0079c531659141344cd1fd0a4f28419497f9722a3daafe3b4186f6b6457e060405160405180910390a35050565b6000604051905090565b600080fd5b600080fd5b600080fd5b600080fd5b6000601f19601f8301169050919050565b7f4e487b7100000000000000000000000000000000000000000000000000000000600052604160045260246000fd5b610215826101cc565b810181811067ffffffffffffffff82111715610234576102336101dd565b5b80604052505050565b60006102476101ae565b9050610253828261020c565b919050565b600067ffffffffffffffff821115610273576102726101dd565b5b61027c826101cc565b9050602081019050919050565b60005b838110156102a757808201518184015260208101905061028c565b60008484015250505050565b60006102c66102c184610258565b61023d565b9050828152602081018484840111156102e2576102e16101c7565b5b6102ed848285610289565b509392505050565b600082601f83011261030a576103096101c2565b5b815161031a8482602086016102b3565b91505092915050565b6000806040838503121561033a576103396101b8565b5b600083015167ffffffffffffffff811115610358576103576101bd565b5b610364858286016102f5565b925050602083015167ffffffffffffffff811115610385576103846101bd565b5b610391858286016102f5565b9150509250929050565b600081519050919050565b7f4e487b7100000000000000000000000000000000000000000000000000000000600052602260045260246000fd5b600060028204905060018216806103ed57607f821691505b602082108103610400576103ff6103a6565b5b50919050565b60008190508160005260206000209050919050565b60006020601f8301049050919050565b600082821b905092915050565b6000600883026104687fffffffffffffffffffffffffffffffffffffffffffffffffffffffffffffffff8261042b565b610472868361042b565b95508019841693508086168417925050509392505050565b6000819050919050565b6000819050919050565b60006104b96104b46104af8461048a565b610494565b61048a565b9050919050565b6000819050919050565b6104d38361049e565b6104e76104df826104c0565b848454610438565b825550505050565b600090565b6104fc6104ef565b6105078184846104ca565b505050565b5b8181101561052b576105206000826104f4565b60018101905061050d565b5050565b601f8211156105705761054181610406565b61054a8461041b565b81016020851015610559578190505b61056d6105658561041b565b83018261050c565b50505b505050565b600082821c905092915050565b600061059360001984600802610575565b1980831691505092915050565b60006105ac8383610582565b9150826002028217905092915050565b6105c58261039b565b67ffffffffffffffff8111156105de576105dd6101dd565b5b6105e882546103d5565b6105f382828561052f565b600060209050601f8311600181146106265760008415610614578287015190505b61061e85826105a0565b865550610686565b601f19841661063486610406565b60005b8281101561065c57848901518255600182019150602085019450602081019050610637565b868310156106795784890151610675601f891682610582565b8355505b6001600288020188555050505b505050505050565b600073ffffffffffffffffffffffffffffffffffffffff82169050919050565b60006106b98261068e565b9050919050565b6106c9816106ae565b82525050565b60006020820190506106e460008301846106c0565b92915050565b6121cd806106f96000396000f3fe608060405234801561001057600080fd5b50600436106101165760003560e01c8063715018a6116100a2578063b88d4fde11610071578063b88d4fde146102cb578063c87b56dd146102e7578063e985e9c514610317578063f2fde38b14610347578063f687ed571461036357610116565b8063715018a6146102695780638da5cb5b1461027357806395d89b4114610291578063a22cb465146102af57610116565b806323b872dd116100e957806323b872dd146101b557806342842e0e146101d15780636352211e146101ed5780636a6278421461021d57806370a082311461023957610116565b806301ffc9a71461011b57806306fdde031461014b578063081812fc14610169578063095ea7b314610199575b600080fd5b610135600480360381019061013091906119a0565b61037f565b60405161014291906119e8565b60405180910390f35b610153610461565b6040516101609190611a93565b60405180910390f35b610183600480360381019061017e9190611aeb565b6104f3565b6040516101909190611b59565b60405180910390f35b6101b360048036038101906101ae9190611ba0565b61050f565b005b6101cf60048036038101906101ca9190611be0565b610525565b005b6101eb60048036038101906101e69190611be0565b610627565b005b61020760048036038101906102029190611aeb565b610647565b6040516102149190611b59565b60405180910390f35b61023760048036038101906102329190611c33565b610659565b005b610253600480360381019061024e9190611c33565b610688565b6040516102609190611c6f565b60405180910390f35b610271610742565b005b61027b610756565b6040516102889190611b59565b60405180910390f35b610299610780565b6040516102a69190611a93565b60405180910390f35b6102c960048036038101906102c49190611cb6565b610812565b005b6102e560048036038101906102e09190611e2b565b610828565b005b61030160048036038101906102fc9190611aeb565b61084d565b60405161030e9190611a93565b60405180910390f35b610331600480360381019061032c9190611eae565b6108b6565b60405161033e91906119e8565b60405180910390f35b610361600480360381019061035c9190611c33565b61094a565b005b61037d60048036038101906103789190611aeb565b6109d0565b005b60007f80ac58cd000000000000000000000000000000000000000000000000000000007bffffffffffffffffffffffffffffffffffffffffffffffffffffffff1916827bffffffffffffffffffffffffffffffffffffffffffffffffffffffff1916148061044a57507f5b5e139f000000000000000000000000000000000000000000000000000000007bffffffffffffffffffffffffffffffffffffffffffffffffffffffff1916827bffffffffffffffffffffffffffffffffffffffffffffffffffffffff1916145b8061045a5750610459826109e4565b5b9050919050565b60606000805461047090611f1d565b80601f016020809104026020016040519081016040528092919081815260200182805461049c90611f1d565b80156104e95780601f106104be576101008083540402835291602001916104e9565b820191906000526020600020905b8154815290600101906020018083116104cc57829003601f168201915b5050505050905090565b60006104fe82610a4e565b5061050882610ad6565b9050919050565b610521828261051c610b13565b610b1b565b5050565b600073ffffffffffffffffffffffffffffffffffffffff168273ffffffffffffffffffffffffffffffffffffffff16036105975760006040517f64a0ae9200000000000000000000000000000000000000000000000000000000815260040161058e9190611b59565b60405180910390fd5b60006105ab83836105a6610b13565b610b2d565b90508373ffffffffffffffffffffffffffffffffffffffff168173ffffffffffffffffffffffffffffffffffffffff1614610621578382826040517f64283d7b00000000000000000000000000000000000000000000000000000000815260040161061893929190611f4e565b60405180910390fd5b50505050565b61064283838360405180602001604052806000815250610828565b505050565b600061065282610a4e565b9050919050565b610661610d47565b61066d81600754610dce565b6007600081548092919061068090611fb4565b919050555050565b60008073ffffffffffffffffffffffffffffffffffffffff168273ffffffffffffffffffffffffffffffffffffffff16036106fb5760006040517f89c62b640000000000000000000000000000000000000000000000000000000081526004016106f29190611b59565b60405180910390fd5b600360008373ffffffffffffffffffffffffffffffffffffffff1673ffffffffffffffffffffffffffffffffffffffff168152602001908152602001600020549050919050565b61074a610d47565b6107546000610dec565b565b6000600660009054906101000a900473ffffffffffffffffffffffffffffffffffffffff16905090565b60606001805461078f90611f1d565b80601f01602080910402602001604051908101604052809291908181526020018280546107bb90611f1d565b80156108085780601f106107dd57610100808354040283529160200191610808565b820191906000526020600020905b8154815290600101906020018083116107eb57829003601f168201915b5050505050905090565b61082461081d610b13565b8383610eb2565b5050565b610833848484610525565b61084761083e610b13565b85858585611021565b50505050565b606061085882610a4e565b5060006108636111d2565b9050600081511161088357604051806020016040528060008152506108ae565b8061088d846111e9565b60405160200161089e929190612038565b6040516020818303038152906040525b915050919050565b6000600560008473ffffffffffffffffffffffffffffffffffffffff1673ffffffffffffffffffffffffffffffffffffffff16815260200190815260200160002060008373ffffffffffffffffffffffffffffffffffffffff1673ffffffffffffffffffffffffffffffffffffffff16815260200190815260200160002060009054906101000a900460ff16905092915050565b610952610d47565b600073ffffffffffffffffffffffffffffffffffffffff168173ffffffffffffffffffffffffffffffffffffffff16036109c45760006040517f1e4fbdf70000000000000000000000000000000000000000000000000000000081526004016109bb9190611b59565b60405180910390fd5b6109cd81610dec565b50565b6109d8610d47565b6109e1816112b7565b50565b60007f01ffc9a7000000000000000000000000000000000000000000000000000000007bffffffffffffffffffffffffffffffffffffffffffffffffffffffff1916827bffffffffffffffffffffffffffffffffffffffffffffffffffffffff1916149050919050565b600080610a5a8361133d565b9050600073ffffffffffffffffffffffffffffffffffffffff168173ffffffffffffffffffffffffffffffffffffffff1603610acd57826040517f7e273289000000000000000000000000000000000000000000000000000000008152600401610ac49190611c6f565b60405180910390fd5b80915050919050565b60006004600083815260200190815260200160002060009054906101000a900473ffffffffffffffffffffffffffffffffffffffff169050919050565b600033905090565b610b28838383600161137a565b505050565b600080610b398461133d565b9050600073ffffffffffffffffffffffffffffffffffffffff168373ffffffffffffffffffffffffffffffffffffffff1614610b7b57610b7a81848661153f565b5b600073ffffffffffffffffffffffffffffffffffffffff168173ffffffffffffffffffffffffffffffffffffffff1614610c0c57610bbd60008560008061137a565b6001600360008373ffffffffffffffffffffffffffffffffffffffff1673ffffffffffffffffffffffffffffffffffffffff168152602001908152602001600020600082825403925050819055505b600073ffffffffffffffffffffffffffffffffffffffff168573ffffffffffffffffffffffffffffffffffffffff1614610c8f576001600360008773ffffffffffffffffffffffffffffffffffffffff1673ffffffffffffffffffffffffffffffffffffffff168152602001908152602001600020600082825401925050819055505b846002600086815260200190815260200160002060006101000a81548173ffffffffffffffffffffffffffffffffffffffff021916908373ffffffffffffffffffffffffffffffffffffffff160217905550838573ffffffffffffffffffffffffffffffffffffffff168273ffffffffffffffffffffffffffffffffffffffff167fddf252ad1be2c89b69c2b068fc378daa952ba7f163c4a11628f55a4df523b3ef60405160405180910390a4809150509392505050565b610d4f610b13565b73ffffffffffffffffffffffffffffffffffffffff16610d6d610756565b73ffffffffffffffffffffffffffffffffffffffff1614610dcc57610d90610b13565b6040517f118cdaa7000000000000000000000000000000000000000000000000000000008152600401610dc39190611b59565b60405180910390fd5b565b610de8828260405180602001604052806000815250611603565b5050565b6000600660009054906101000a900473ffffffffffffffffffffffffffffffffffffffff16905081600660006101000a81548173ffffffffffffffffffffffffffffffffffffffff021916908373ffffffffffffffffffffffffffffffffffffffff1602179055508173ffffffffffffffffffffffffffffffffffffffff168173ffffffffffffffffffffffffffffffffffffffff167f8be0079c531659141344cd1fd0a4f28419497f9722a3daafe3b4186f6b6457e060405160405180910390a35050565b600073ffffffffffffffffffffffffffffffffffffffff168273ffffffffffffffffffffffffffffffffffffffff1603610f2357816040517f5b08ba18000000000000000000000000000000000000000000000000000000008152600401610f1a9190611b59565b60405180910390fd5b80600560008573ffffffffffffffffffffffffffffffffffffffff1673ffffffffffffffffffffffffffffffffffffffff16815260200190815260200160002060008473ffffffffffffffffffffffffffffffffffffffff1673ffffffffffffffffffffffffffffffffffffffff16815260200190815260200160002060006101000a81548160ff0219169083151502179055508173ffffffffffffffffffffffffffffffffffffffff168373ffffffffffffffffffffffffffffffffffffffff167f17307eab39ab6107e8899845ad3d59bd9653f200f220920489ca2b5937696c318360405161101491906119e8565b60405180910390a3505050565b60008373ffffffffffffffffffffffffffffffffffffffff163b11156111cb578273ffffffffffffffffffffffffffffffffffffffff1663150b7a02868685856040518563ffffffff1660e01b815260040161108094939291906120b1565b6020604051808303816000875af19250505080156110bc57506040513d601f19601f820116820180604052508101906110b99190612112565b60015b611140573d80600081146110ec576040519150601f19603f3d011682016040523d82523d6000602084013e6110f1565b606091505b50600081510361113857836040517f64a0ae9200000000000000000000000000000000000000000000000000000000815260040161112f9190611b59565b60405180910390fd5b805181602001fd5b63150b7a0260e01b7bffffffffffffffffffffffffffffffffffffffffffffffffffffffff1916817bffffffffffffffffffffffffffffffffffffffffffffffffffffffff1916146111c957836040517f64a0ae920000000000000000000000000000000000000000000000000000000081526004016111c09190611b59565b60405180910390fd5b505b5050505050565b606060405180602001604052806000815250905090565b6060600060016111f884611627565b01905060008167ffffffffffffffff81111561121757611216611d00565b5b6040519080825280601f01601f1916602001820160405280156112495781602001600182028036833780820191505090505b509050600082602001820190505b6001156112ac578080600190039150507f3031323334353637383961626364656600000000000000000000000000000000600a86061a8153600a85816112a05761129f61213f565b5b04945060008503611257575b819350505050919050565b60006112c66000836000610b2d565b9050600073ffffffffffffffffffffffffffffffffffffffff168173ffffffffffffffffffffffffffffffffffffffff160361133957816040517f7e2732890000000000000000000000000000000000000000000000000000000081526004016113309190611c6f565b60405180910390fd5b5050565b60006002600083815260200190815260200160002060009054906101000a900473ffffffffffffffffffffffffffffffffffffffff169050919050565b80806113b35750600073ffffffffffffffffffffffffffffffffffffffff168273ffffffffffffffffffffffffffffffffffffffff1614155b156114e75760006113c384610a4e565b9050600073ffffffffffffffffffffffffffffffffffffffff168373ffffffffffffffffffffffffffffffffffffffff161415801561142e57508273ffffffffffffffffffffffffffffffffffffffff168173ffffffffffffffffffffffffffffffffffffffff1614155b8015611441575061143f81846108b6565b155b1561148357826040517fa9fbf51f00000000000000000000000000000000000000000000000000000000815260040161147a9190611b59565b60405180910390fd5b81156114e557838573ffffffffffffffffffffffffffffffffffffffff168273ffffffffffffffffffffffffffffffffffffffff167f8c5be1e5ebec7d5bd14f71427d1e84f3dd0314c0f7b2291e5b200ac8c7c3b92560405160405180910390a45b505b836004600085815260200190815260200160002060006101000a81548173ffffffffffffffffffffffffffffffffffffffff021916908373ffffffffffffffffffffffffffffffffffffffff16021790555050505050565b61154a83838361177a565b6115fe57600073ffffffffffffffffffffffffffffffffffffffff168373ffffffffffffffffffffffffffffffffffffffff16036115bf57806040517f7e2732890000000000000000000000000000000000000000000000000000000081526004016115b69190611c6f565b60405180910390fd5b81816040517f177e802f0000000000000000000000000000000000000000000000000000000081526004016115f592919061216e565b60405180910390fd5b505050565b61160d838361183b565b611622611618610b13565b6000858585611021565b505050565b600080600090507a184f03e93ff9f4daa797ed6e38ed64bf6a1f0100000000000000008310611685577a184f03e93ff9f4daa797ed6e38ed64bf6a1f010000000000000000838161167b5761167a61213f565b5b0492506040810190505b6d04ee2d6d415b85acef810000000083106116c2576d04ee2d6d415b85acef810000000083816116b8576116b761213f565b5b0492506020810190505b662386f26fc1000083106116f157662386f26fc1000083816116e7576116e661213f565b5b0492506010810190505b6305f5e100831061171a576305f5e10083816117105761170f61213f565b5b0492506008810190505b612710831061173f5761271083816117355761173461213f565b5b0492506004810190505b6064831061176257606483816117585761175761213f565b5b0492506002810190505b600a8310611771576001810190505b80915050919050565b60008073ffffffffffffffffffffffffffffffffffffffff168373ffffffffffffffffffffffffffffffffffffffff161415801561183257508273ffffffffffffffffffffffffffffffffffffffff168473ffffffffffffffffffffffffffffffffffffffff1614806117f357506117f284846108b6565b5b8061183157508273ffffffffffffffffffffffffffffffffffffffff1661181983610ad6565b73ffffffffffffffffffffffffffffffffffffffff16145b5b90509392505050565b600073ffffffffffffffffffffffffffffffffffffffff168273ffffffffffffffffffffffffffffffffffffffff16036118ad5760006040517f64a0ae920000000000000000000000000000000000000000000000000000000081526004016118a49190611b59565b60405180910390fd5b60006118bb83836000610b2d565b9050600073ffffffffffffffffffffffffffffffffffffffff168173ffffffffffffffffffffffffffffffffffffffff161461192f5760006040517f73c6ac6e0000000000000000000000000000000000000000000000000000000081526004016119269190611b59565b60405180910390fd5b505050565b6000604051905090565b600080fd5b600080fd5b60007fffffffff0000000000000000000000000000000000000000000000000000000082169050919050565b61197d81611948565b811461198857600080fd5b50565b60008135905061199a81611974565b92915050565b6000602082840312156119b6576119b561193e565b5b60006119c48482850161198b565b91505092915050565b60008115159050919050565b6119e2816119cd565b82525050565b60006020820190506119fd60008301846119d9565b92915050565b600081519050919050565b600082825260208201905092915050565b60005b83811015611a3d578082015181840152602081019050611a22565b60008484015250505050565b6000601f19601f8301169050919050565b6000611a6582611a03565b611a6f8185611a0e565b9350611a7f818560208601611a1f565b611a8881611a49565b840191505092915050565b60006020820190508181036000830152611aad8184611a5a565b905092915050565b6000819050919050565b611ac881611ab5565b8114611ad357600080fd5b50565b600081359050611ae581611abf565b92915050565b600060208284031215611b0157611b0061193e565b5b6000611b0f84828501611ad6565b91505092915050565b600073ffffffffffffffffffffffffffffffffffffffff82169050919050565b6000611b4382611b18565b9050919050565b611b5381611b38565b82525050565b6000602082019050611b6e6000830184611b4a565b92915050565b611b7d81611b38565b8114611b8857600080fd5b50565b600081359050611b9a81611b74565b92915050565b60008060408385031215611bb757611bb661193e565b5b6000611bc585828601611b8b565b9250506020611bd685828601611ad6565b9150509250929050565b600080600060608486031215611bf957611bf861193e565b5b6000611c0786828701611b8b565b9350506020611c1886828701611b8b565b9250506040611c2986828701611ad6565b9150509250925092565b600060208284031215611c4957611c4861193e565b5b6000611c5784828501611b8b565b91505092915050565b611c6981611ab5565b82525050565b6000602082019050611c846000830184611c60565b92915050565b611c93816119cd565b8114611c9e57600080fd5b50565b600081359050611cb081611c8a565b92915050565b60008060408385031215611ccd57611ccc61193e565b5b6000611cdb85828601611b8b565b9250506020611cec85828601611ca1565b9150509250929050565b600080fd5b600080fd5b7f4e487b7100000000000000000000000000000000000000000000000000000000600052604160045260246000fd5b611d3882611a49565b810181811067ffffffffffffffff82111715611d5757611d56611d00565b5b80604052505050565b6000611d6a611934565b9050611d768282611d2f565b919050565b600067ffffffffffffffff821115611d9657611d95611d00565b5b611d9f82611a49565b9050602081019050919050565b82818337600083830152505050565b6000611dce611dc984611d7b565b611d60565b905082815260208101848484011115611dea57611de9611cfb565b5b611df5848285611dac565b509392505050565b600082601f830112611e1257611e11611cf6565b5b8135611e22848260208601611dbb565b91505092915050565b60008060008060808587031215611e4557611e4461193e565b5b6000611e5387828801611b8b565b9450506020611e6487828801611b8b565b9350506040611e7587828801611ad6565b925050606085013567ffffffffffffffff811115611e9657611e95611943565b5b611ea287828801611dfd565b91505092959194509250565b60008060408385031215611ec557611ec461193e565b5b6000611ed385828601611b8b565b9250506020611ee485828601611b8b565b9150509250929050565b7f4e487b7100000000000000000000000000000000000000000000000000000000600052602260045260246000fd5b60006002820490506001821680611f3557607f821691505b602082108103611f4857611f47611eee565b5b50919050565b6000606082019050611f636000830186611b4a565b611f706020830185611c60565b611f7d6040830184611b4a565b949350505050565b7f4e487b7100000000000000000000000000000000000000000000000000000000600052601160045260246000fd5b6000611fbf82611ab5565b91507fffffffffffffffffffffffffffffffffffffffffffffffffffffffffffffffff8203611ff157611ff0611f85565b5b600182019050919050565b600081905092915050565b600061201282611a03565b61201c8185611ffc565b935061202c818560208601611a1f565b80840191505092915050565b60006120448285612007565b91506120508284612007565b91508190509392505050565b600081519050919050565b600082825260208201905092915050565b60006120838261205c565b61208d8185612067565b935061209d818560208601611a1f565b6120a681611a49565b840191505092915050565b60006080820190506120c66000830187611b4a565b6120d36020830186611b4a565b6120e06040830185611c60565b81810360608301526120f28184612078565b905095945050505050565b60008151905061210c81611974565b92915050565b6000602082840312156121285761212761193e565b5b6000612136848285016120fd565b91505092915050565b7f4e487b7100000000000000000000000000000000000000000000000000000000600052601260045260246000fd5b60006040820190506121836000830185611b4a565b6121906020830184611c60565b939250505056fea2646970667358221220c74cdc9dd42265ce843fd82c1a34165c4c5e2368811c8b4a8c612eb0d2cb0c1a64736f6c634300081b0033a264697066735822122070a51c41889d3c6f15ebefd0d516e879b9483b412ea324f963009625ed0aa9ef64736f6c634300081b0033",
  "linkReferences": {},
  "deployedLinkReferences": {}
}