{
  "_format": "hh-sol-artifact-1",
  "contractName": "NFTCollectionFactory",
  "sourceName": "contracts/NFTCollectionFactory.sol",
  "abi": [
    {
      "anonymous": false,
      "inputs": [
        {
          "indexed": true,
          "internalType": "address",
          "name": "owner",
          "type": "address"
        },
        {
          "indexed": false,
          "internalType": "address",
          "name": "collectionAddress",
          "type": "address"
        }
      ],
      "name": "CollectionCreated",
      "type": "event"
    },
    {
      "inputs": [
        {
          "internalType": "string",
          "name": "name",
          "type": "string"
        },
        {
          "internalType": "string",
          "name": "symbol",
          "type": "string"
        }
      ],
      "name": "createCollection",
      "outputs": [],
      "stateMutability": "nonpayable",
      "type": "function"
    },
    {
      "inputs": [
        {
          "internalType": "uint256",
          "name": "collectionIndex",
          "type": "uint256"
        }
      ],
      "name": "deleteCollection",
      "outputs": [],
      "stateMutability": "nonpayable",
      "type": "function"
    },
    {
      "inputs": [],
      "name": "getAllCollections",
      "outputs": [
        {
          "components": [
            {
              "internalType": "address",
              "name": "owner",
              "type": "address"
            },
            {
              "internalType": "address",
              "name": "collection",
              "type": "address"
            }
          ],
          "internalType": "struct NFTCollectionFactory.CollectionsInfo[]",
          "name": "",
          "type": "tuple[]"
        }
      ],
      "stateMutability": "view",
      "type": "function"
    },
    {
      "inputs": [
        {
          "internalType": "address",
          "name": "user",
          "type": "address"
        }
      ],
      "name": "getCollectionsByUser",
      "outputs": [
        {
          "internalType": "address[]",
          "name": "",
          "type": "address[]"
        }
      ],
      "stateMutability": "view",
      "type": "function"
    },
    {
      "inputs": [],
      "name": "getUserAddressesWithCollections",
      "outputs": [
        {
          "internalType": "address[]",
          "name": "",
          "type": "address[]"
        }
      ],
      "stateMutability": "view",
      "type": "function"
    },
    {
      "inputs": [
        {
          "internalType": "uint256",
          "name": "",
          "type": "uint256"
        }
      ],
      "name": "userAddresses",
      "outputs": [
        {
          "internalType": "address",
          "name": "",
          "type": "address"
        }
      ],
      "stateMutability": "view",
      "type": "function"
    }
  ],
  "bytecode": "0x6080604052348015600f57600080fd5b5061394b8061001f6000396000f3fe608060405234801561001057600080fd5b50600436106100625760003560e01c8063176b9b7514610067578063502c9bd5146100835780636804a958146100b357806392b426a3146100d1578063a42c587a14610101578063dc6035951461011d575b600080fd5b610081600480360381019061007c9190610aae565b61013b565b005b61009d60048036038101906100989190610b5c565b6103d1565b6040516100aa9190610bca565b60405180910390f35b6100bb610410565b6040516100c89190610cd2565b60405180910390f35b6100eb60048036038101906100e69190610d20565b610727565b6040516100f89190610dfc565b60405180910390f35b61011b60048036038101906101169190610b5c565b6107f3565b005b610125610873565b6040516101329190610dfc565b60405180910390f35b600080838360405161014c90610901565b610157929190610e9d565b604051809103906000f080158015610173573d6000803e3d6000fd5b5090508073ffffffffffffffffffffffffffffffffffffffff1663f2fde38b336040518263ffffffff1660e01b81526004016101af9190610bca565b600060405180830381600087803b1580156101c957600080fd5b505af11580156101dd573d6000803e3d6000fd5b505050506000803373ffffffffffffffffffffffffffffffffffffffff1673ffffffffffffffffffffffffffffffffffffffff168152602001908152602001600020819080600181540180825580915050600190039060005260206000200160009091909190916101000a81548173ffffffffffffffffffffffffffffffffffffffff021916908373ffffffffffffffffffffffffffffffffffffffff16021790555060005b600180549050811015610313573373ffffffffffffffffffffffffffffffffffffffff16600182815481106102bb576102ba610ed4565b5b9060005260206000200160009054906101000a900473ffffffffffffffffffffffffffffffffffffffff1673ffffffffffffffffffffffffffffffffffffffff160361030657600192505b8080600101915050610283565b508161037d576001339080600181540180825580915050600190039060005260206000200160009091909190916101000a81548173ffffffffffffffffffffffffffffffffffffffff021916908373ffffffffffffffffffffffffffffffffffffffff1602179055505b3373ffffffffffffffffffffffffffffffffffffffff167f5d0de243db1669e3a7056744cd715c625f0c1c348736c2c2d53d0ddebff1a6c7826040516103c39190610bca565b60405180910390a250505050565b600181815481106103e157600080fd5b906000526020600020016000915054906101000a900473ffffffffffffffffffffffffffffffffffffffff1681565b6060600080600090505b6001805490508110156104c1576000806001838154811061043e5761043d610ed4565b5b9060005260206000200160009054906101000a900473ffffffffffffffffffffffffffffffffffffffff1673ffffffffffffffffffffffffffffffffffffffff1673ffffffffffffffffffffffffffffffffffffffff16815260200190815260200160002080549050826104b29190610f32565b9150808060010191505061041a565b5060008167ffffffffffffffff8111156104de576104dd610983565b5b60405190808252806020026020018201604052801561051757816020015b61050461090e565b8152602001906001900390816104fc5790505b5090506000805b60018054905081101561071d5760008060006001848154811061054457610543610ed4565b5b9060005260206000200160009054906101000a900473ffffffffffffffffffffffffffffffffffffffff1673ffffffffffffffffffffffffffffffffffffffff1673ffffffffffffffffffffffffffffffffffffffff16815260200190815260200160002080548060200260200160405190810160405280929190818152602001828054801561062957602002820191906000526020600020905b8160009054906101000a900473ffffffffffffffffffffffffffffffffffffffff1673ffffffffffffffffffffffffffffffffffffffff16815260200190600101908083116105df575b5050505050905060005b815181101561070e5760405180604001604052806001858154811061065b5761065a610ed4565b5b9060005260206000200160009054906101000a900473ffffffffffffffffffffffffffffffffffffffff1673ffffffffffffffffffffffffffffffffffffffff1681526020018383815181106106b4576106b3610ed4565b5b602002602001015173ffffffffffffffffffffffffffffffffffffffff168152508585815181106106e8576106e7610ed4565b5b602002602001018190525083806106fe90610f66565b9450508080600101915050610633565b5050808060010191505061051e565b5081935050505090565b60606000808373ffffffffffffffffffffffffffffffffffffffff1673ffffffffffffffffffffffffffffffffffffffff1681526020019081526020016000208054806020026020016040519081016040528092919081815260200182805480156107e757602002820191906000526020600020905b8160009054906101000a900473ffffffffffffffffffffffffffffffffffffffff1673ffffffffffffffffffffffffffffffffffffffff168152602001906001019080831161079d575b50505050509050919050565b6000803373ffffffffffffffffffffffffffffffffffffffff1673ffffffffffffffffffffffffffffffffffffffff168152602001908152602001600020818154811061084357610842610ed4565b5b9060005260206000200160006101000a81549073ffffffffffffffffffffffffffffffffffffffff021916905550565b606060018054806020026020016040519081016040528092919081815260200182805480156108f757602002820191906000526020600020905b8160009054906101000a900473ffffffffffffffffffffffffffffffffffffffff1673ffffffffffffffffffffffffffffffffffffffff16815260200190600101908083116108ad575b5050505050905090565b61296780610faf83390190565b6040518060400160405280600073ffffffffffffffffffffffffffffffffffffffff168152602001600073ffffffffffffffffffffffffffffffffffffffff1681525090565b6000604051905090565b600080fd5b600080fd5b600080fd5b600080fd5b6000601f19601f8301169050919050565b7f4e487b7100000000000000000000000000000000000000000000000000000000600052604160045260246000fd5b6109bb82610972565b810181811067ffffffffffffffff821117156109da576109d9610983565b5b80604052505050565b60006109ed610954565b90506109f982826109b2565b919050565b600067ffffffffffffffff821115610a1957610a18610983565b5b610a2282610972565b9050602081019050919050565b82818337600083830152505050565b6000610a51610a4c846109fe565b6109e3565b905082815260208101848484011115610a6d57610a6c61096d565b5b610a78848285610a2f565b509392505050565b600082601f830112610a9557610a94610968565b5b8135610aa5848260208601610a3e565b91505092915050565b60008060408385031215610ac557610ac461095e565b5b600083013567ffffffffffffffff811115610ae357610ae2610963565b5b610aef85828601610a80565b925050602083013567ffffffffffffffff811115610b1057610b0f610963565b5b610b1c85828601610a80565b9150509250929050565b6000819050919050565b610b3981610b26565b8114610b4457600080fd5b50565b600081359050610b5681610b30565b92915050565b600060208284031215610b7257610b7161095e565b5b6000610b8084828501610b47565b91505092915050565b600073ffffffffffffffffffffffffffffffffffffffff82169050919050565b6000610bb482610b89565b9050919050565b610bc481610ba9565b82525050565b6000602082019050610bdf6000830184610bbb565b92915050565b600081519050919050565b600082825260208201905092915050565b6000819050602082019050919050565b610c1a81610ba9565b82525050565b604082016000820151610c366000850182610c11565b506020820151610c496020850182610c11565b50505050565b6000610c5b8383610c20565b60408301905092915050565b6000602082019050919050565b6000610c7f82610be5565b610c898185610bf0565b9350610c9483610c01565b8060005b83811015610cc5578151610cac8882610c4f565b9750610cb783610c67565b925050600181019050610c98565b5085935050505092915050565b60006020820190508181036000830152610cec8184610c74565b905092915050565b610cfd81610ba9565b8114610d0857600080fd5b50565b600081359050610d1a81610cf4565b92915050565b600060208284031215610d3657610d3561095e565b5b6000610d4484828501610d0b565b91505092915050565b600081519050919050565b600082825260208201905092915050565b6000819050602082019050919050565b6000610d858383610c11565b60208301905092915050565b6000602082019050919050565b6000610da982610d4d565b610db38185610d58565b9350610dbe83610d69565b8060005b83811015610def578151610dd68882610d79565b9750610de183610d91565b925050600181019050610dc2565b5085935050505092915050565b60006020820190508181036000830152610e168184610d9e565b905092915050565b600081519050919050565b600082825260208201905092915050565b60005b83811015610e58578082015181840152602081019050610e3d565b60008484015250505050565b6000610e6f82610e1e565b610e798185610e29565b9350610e89818560208601610e3a565b610e9281610972565b840191505092915050565b60006040820190508181036000830152610eb78185610e64565b90508181036020830152610ecb8184610e64565b90509392505050565b7f4e487b7100000000000000000000000000000000000000000000000000000000600052603260045260246000fd5b7f4e487b7100000000000000000000000000000000000000000000000000000000600052601160045260246000fd5b6000610f3d82610b26565b9150610f4883610b26565b9250828201905080821115610f6057610f5f610f03565b5b92915050565b6000610f7182610b26565b91507fffffffffffffffffffffffffffffffffffffffffffffffffffffffffffffffff8203610fa357610fa2610f03565b5b60018201905091905056fe608060405234801561001057600080fd5b5060405161296738038061296783398181016040528101906100329190610323565b338282816000908161004491906105bc565b50806001908161005491906105bc565b505050600073ffffffffffffffffffffffffffffffffffffffff168173ffffffffffffffffffffffffffffffffffffffff16036100c95760006040517f1e4fbdf70000000000000000000000000000000000000000000000000000000081526004016100c091906106cf565b60405180910390fd5b6100d8816100e860201b60201c565b50600060078190555050506106ea565b6000600660009054906101000a900473ffffffffffffffffffffffffffffffffffffffff16905081600660006101000a81548173ffffffffffffffffffffffffffffffffffffffff021916908373ffffffffffffffffffffffffffffffffffffffff1602179055508173ffffffffffffffffffffffffffffffffffffffff168173ffffffffffffffffffffffffffffffffffffffff167f8be0079c531659141344cd1fd0a4f28419497f9722a3daafe3b4186f6b6457e060405160405180910390a35050565b6000604051905090565b600080fd5b600080fd5b600080fd5b600080fd5b6000601f19601f8301169050919050565b7f4e487b7100000000000000000000000000000000000000000000000000000000600052604160045260246000fd5b610215826101cc565b810181811067ffffffffffffffff82111715610234576102336101dd565b5b80604052505050565b60006102476101ae565b9050610253828261020c565b919050565b600067ffffffffffffffff821115610273576102726101dd565b5b61027c826101cc565b9050602081019050919050565b60005b838110156102a757808201518184015260208101905061028c565b60008484015250505050565b60006102c66102c184610258565b61023d565b9050828152602081018484840111156102e2576102e16101c7565b5b6102ed848285610289565b509392505050565b600082601f83011261030a576103096101c2565b5b815161031a8482602086016102b3565b91505092915050565b6000806040838503121561033a576103396101b8565b5b600083015167ffffffffffffffff811115610358576103576101bd565b5b610364858286016102f5565b925050602083015167ffffffffffffffff811115610385576103846101bd565b5b610391858286016102f5565b9150509250929050565b600081519050919050565b7f4e487b7100000000000000000000000000000000000000000000000000000000600052602260045260246000fd5b600060028204905060018216806103ed57607f821691505b602082108103610400576103ff6103a6565b5b50919050565b60008190508160005260206000209050919050565b60006020601f8301049050919050565b600082821b905092915050565b6000600883026104687fffffffffffffffffffffffffffffffffffffffffffffffffffffffffffffffff8261042b565b610472868361042b565b95508019841693508086168417925050509392505050565b6000819050919050565b6000819050919050565b60006104b96104b46104af8461048a565b610494565b61048a565b9050919050565b6000819050919050565b6104d38361049e565b6104e76104df826104c0565b848454610438565b825550505050565b600090565b6104fc6104ef565b6105078184846104ca565b505050565b5b8181101561052b576105206000826104f4565b60018101905061050d565b5050565b601f8211156105705761054181610406565b61054a8461041b565b81016020851015610559578190505b61056d6105658561041b565b83018261050c565b50505b505050565b600082821c905092915050565b600061059360001984600802610575565b1980831691505092915050565b60006105ac8383610582565b9150826002028217905092915050565b6105c58261039b565b67ffffffffffffffff8111156105de576105dd6101dd565b5b6105e882546103d5565b6105f382828561052f565b600060209050601f8311600181146106265760008415610614578287015190505b61061e85826105a0565b865550610686565b601f19841661063486610406565b60005b8281101561065c57848901518255600182019150602085019450602081019050610637565b868310156106795784890151610675601f891682610582565b8355505b6001600288020188555050505b505050505050565b600073ffffffffffffffffffffffffffffffffffffffff82169050919050565b60006106b98261068e565b9050919050565b6106c9816106ae565b82525050565b60006020820190506106e460008301846106c0565b92915050565b61226e806106f96000396000f3fe608060405234801561001057600080fd5b50600436106101165760003560e01c8063715018a6116100a2578063b88d4fde11610071578063b88d4fde146102cb578063c87b56dd146102e7578063e985e9c514610317578063f2fde38b14610347578063f687ed571461036357610116565b8063715018a6146102695780638da5cb5b1461027357806395d89b4114610291578063a22cb465146102af57610116565b806323b872dd116100e957806323b872dd146101b557806342842e0e146101d15780636352211e146101ed5780636a6278421461021d57806370a082311461023957610116565b806301ffc9a71461011b57806306fdde031461014b578063081812fc14610169578063095ea7b314610199575b600080fd5b61013560048036038101906101309190611a41565b61037f565b6040516101429190611a89565b60405180910390f35b610153610461565b6040516101609190611b34565b60405180910390f35b610183600480360381019061017e9190611b8c565b6104f3565b6040516101909190611bfa565b60405180910390f35b6101b360048036038101906101ae9190611c41565b61050f565b005b6101cf60048036038101906101ca9190611c81565b610525565b005b6101eb60048036038101906101e69190611c81565b610627565b005b61020760048036038101906102029190611b8c565b610647565b6040516102149190611bfa565b60405180910390f35b61023760048036038101906102329190611cd4565b610659565b005b610253600480360381019061024e9190611cd4565b6106e5565b6040516102609190611d10565b60405180910390f35b61027161079f565b005b61027b6107b3565b6040516102889190611bfa565b60405180910390f35b6102996107dd565b6040516102a69190611b34565b60405180910390f35b6102c960048036038101906102c49190611d57565b61086f565b005b6102e560048036038101906102e09190611ecc565b610885565b005b61030160048036038101906102fc9190611b8c565b6108aa565b60405161030e9190611b34565b60405180910390f35b610331600480360381019061032c9190611f4f565b610913565b60405161033e9190611a89565b60405180910390f35b610361600480360381019061035c9190611cd4565b6109a7565b005b61037d60048036038101906103789190611b8c565b610a2d565b005b60007f80ac58cd000000000000000000000000000000000000000000000000000000007bffffffffffffffffffffffffffffffffffffffffffffffffffffffff1916827bffffffffffffffffffffffffffffffffffffffffffffffffffffffff1916148061044a57507f5b5e139f000000000000000000000000000000000000000000000000000000007bffffffffffffffffffffffffffffffffffffffffffffffffffffffff1916827bffffffffffffffffffffffffffffffffffffffffffffffffffffffff1916145b8061045a575061045982610a85565b5b9050919050565b60606000805461047090611fbe565b80601f016020809104026020016040519081016040528092919081815260200182805461049c90611fbe565b80156104e95780601f106104be576101008083540402835291602001916104e9565b820191906000526020600020905b8154815290600101906020018083116104cc57829003601f168201915b5050505050905090565b60006104fe82610aef565b5061050882610b77565b9050919050565b610521828261051c610bb4565b610bbc565b5050565b600073ffffffffffffffffffffffffffffffffffffffff168273ffffffffffffffffffffffffffffffffffffffff16036105975760006040517f64a0ae9200000000000000000000000000000000000000000000000000000000815260040161058e9190611bfa565b60405180910390fd5b60006105ab83836105a6610bb4565b610bce565b90508373ffffffffffffffffffffffffffffffffffffffff168173ffffffffffffffffffffffffffffffffffffffff1614610621578382826040517f64283d7b00000000000000000000000000000000000000000000000000000000815260040161061893929190611fef565b60405180910390fd5b50505050565b61064283838360405180602001604052806000815250610885565b505050565b600061065282610aef565b9050919050565b610661610de8565b61066d81600754610e6f565b3373ffffffffffffffffffffffffffffffffffffffff163073ffffffffffffffffffffffffffffffffffffffff166007547f0d9c2fd67d93ab9e252c384e7b763a796b2168dce1396d584e6d450264abb3ff60405160405180910390a4600760008154809291906106dd90612055565b919050555050565b60008073ffffffffffffffffffffffffffffffffffffffff168273ffffffffffffffffffffffffffffffffffffffff16036107585760006040517f89c62b6400000000000000000000000000000000000000000000000000000000815260040161074f9190611bfa565b60405180910390fd5b600360008373ffffffffffffffffffffffffffffffffffffffff1673ffffffffffffffffffffffffffffffffffffffff168152602001908152602001600020549050919050565b6107a7610de8565b6107b16000610e8d565b565b6000600660009054906101000a900473ffffffffffffffffffffffffffffffffffffffff16905090565b6060600180546107ec90611fbe565b80601f016020809104026020016040519081016040528092919081815260200182805461081890611fbe565b80156108655780601f1061083a57610100808354040283529160200191610865565b820191906000526020600020905b81548152906001019060200180831161084857829003601f168201915b5050505050905090565b61088161087a610bb4565b8383610f53565b5050565b610890848484610525565b6108a461089b610bb4565b858585856110c2565b50505050565b60606108b582610aef565b5060006108c0611273565b905060008151116108e0576040518060200160405280600081525061090b565b806108ea8461128a565b6040516020016108fb9291906120d9565b6040516020818303038152906040525b915050919050565b6000600560008473ffffffffffffffffffffffffffffffffffffffff1673ffffffffffffffffffffffffffffffffffffffff16815260200190815260200160002060008373ffffffffffffffffffffffffffffffffffffffff1673ffffffffffffffffffffffffffffffffffffffff16815260200190815260200160002060009054906101000a900460ff16905092915050565b6109af610de8565b600073ffffffffffffffffffffffffffffffffffffffff168173ffffffffffffffffffffffffffffffffffffffff1603610a215760006040517f1e4fbdf7000000000000000000000000000000000000000000000000000000008152600401610a189190611bfa565b60405180910390fd5b610a2a81610e8d565b50565b610a35610de8565b610a3e81611358565b3373ffffffffffffffffffffffffffffffffffffffff16817fa44f267c3827c392500a84a35418aa0c625d9b5914f54106c8ce672f681b4d6760405160405180910390a350565b60007f01ffc9a7000000000000000000000000000000000000000000000000000000007bffffffffffffffffffffffffffffffffffffffffffffffffffffffff1916827bffffffffffffffffffffffffffffffffffffffffffffffffffffffff1916149050919050565b600080610afb836113de565b9050600073ffffffffffffffffffffffffffffffffffffffff168173ffffffffffffffffffffffffffffffffffffffff1603610b6e57826040517f7e273289000000000000000000000000000000000000000000000000000000008152600401610b659190611d10565b60405180910390fd5b80915050919050565b60006004600083815260200190815260200160002060009054906101000a900473ffffffffffffffffffffffffffffffffffffffff169050919050565b600033905090565b610bc9838383600161141b565b505050565b600080610bda846113de565b9050600073ffffffffffffffffffffffffffffffffffffffff168373ffffffffffffffffffffffffffffffffffffffff1614610c1c57610c1b8184866115e0565b5b600073ffffffffffffffffffffffffffffffffffffffff168173ffffffffffffffffffffffffffffffffffffffff1614610cad57610c5e60008560008061141b565b6001600360008373ffffffffffffffffffffffffffffffffffffffff1673ffffffffffffffffffffffffffffffffffffffff168152602001908152602001600020600082825403925050819055505b600073ffffffffffffffffffffffffffffffffffffffff168573ffffffffffffffffffffffffffffffffffffffff1614610d30576001600360008773ffffffffffffffffffffffffffffffffffffffff1673ffffffffffffffffffffffffffffffffffffffff168152602001908152602001600020600082825401925050819055505b846002600086815260200190815260200160002060006101000a81548173ffffffffffffffffffffffffffffffffffffffff021916908373ffffffffffffffffffffffffffffffffffffffff160217905550838573ffffffffffffffffffffffffffffffffffffffff168273ffffffffffffffffffffffffffffffffffffffff167fddf252ad1be2c89b69c2b068fc378daa952ba7f163c4a11628f55a4df523b3ef60405160405180910390a4809150509392505050565b610df0610bb4565b73ffffffffffffffffffffffffffffffffffffffff16610e0e6107b3565b73ffffffffffffffffffffffffffffffffffffffff1614610e6d57610e31610bb4565b6040517f118cdaa7000000000000000000000000000000000000000000000000000000008152600401610e649190611bfa565b60405180910390fd5b565b610e898282604051806020016040528060008152506116a4565b5050565b6000600660009054906101000a900473ffffffffffffffffffffffffffffffffffffffff16905081600660006101000a81548173ffffffffffffffffffffffffffffffffffffffff021916908373ffffffffffffffffffffffffffffffffffffffff1602179055508173ffffffffffffffffffffffffffffffffffffffff168173ffffffffffffffffffffffffffffffffffffffff167f8be0079c531659141344cd1fd0a4f28419497f9722a3daafe3b4186f6b6457e060405160405180910390a35050565b600073ffffffffffffffffffffffffffffffffffffffff168273ffffffffffffffffffffffffffffffffffffffff1603610fc457816040517f5b08ba18000000000000000000000000000000000000000000000000000000008152600401610fbb9190611bfa565b60405180910390fd5b80600560008573ffffffffffffffffffffffffffffffffffffffff1673ffffffffffffffffffffffffffffffffffffffff16815260200190815260200160002060008473ffffffffffffffffffffffffffffffffffffffff1673ffffffffffffffffffffffffffffffffffffffff16815260200190815260200160002060006101000a81548160ff0219169083151502179055508173ffffffffffffffffffffffffffffffffffffffff168373ffffffffffffffffffffffffffffffffffffffff167f17307eab39ab6107e8899845ad3d59bd9653f200f220920489ca2b5937696c31836040516110b59190611a89565b60405180910390a3505050565b60008373ffffffffffffffffffffffffffffffffffffffff163b111561126c578273ffffffffffffffffffffffffffffffffffffffff1663150b7a02868685856040518563ffffffff1660e01b81526004016111219493929190612152565b6020604051808303816000875af192505050801561115d57506040513d601f19601f8201168201806040525081019061115a91906121b3565b60015b6111e1573d806000811461118d576040519150601f19603f3d011682016040523d82523d6000602084013e611192565b606091505b5060008151036111d957836040517f64a0ae920000000000000000000000000000000000000000000000000000000081526004016111d09190611bfa565b60405180910390fd5b805181602001fd5b63150b7a0260e01b7bffffffffffffffffffffffffffffffffffffffffffffffffffffffff1916817bffffffffffffffffffffffffffffffffffffffffffffffffffffffff19161461126a57836040517f64a0ae920000000000000000000000000000000000000000000000000000000081526004016112619190611bfa565b60405180910390fd5b505b5050505050565b606060405180602001604052806000815250905090565b606060006001611299846116c8565b01905060008167ffffffffffffffff8111156112b8576112b7611da1565b5b6040519080825280601f01601f1916602001820160405280156112ea5781602001600182028036833780820191505090505b509050600082602001820190505b60011561134d578080600190039150507f3031323334353637383961626364656600000000000000000000000000000000600a86061a8153600a8581611341576113406121e0565b5b049450600085036112f8575b819350505050919050565b60006113676000836000610bce565b9050600073ffffffffffffffffffffffffffffffffffffffff168173ffffffffffffffffffffffffffffffffffffffff16036113da57816040517f7e2732890000000000000000000000000000000000000000000000000000000081526004016113d19190611d10565b60405180910390fd5b5050565b60006002600083815260200190815260200160002060009054906101000a900473ffffffffffffffffffffffffffffffffffffffff169050919050565b80806114545750600073ffffffffffffffffffffffffffffffffffffffff168273ffffffffffffffffffffffffffffffffffffffff1614155b1561158857600061146484610aef565b9050600073ffffffffffffffffffffffffffffffffffffffff168373ffffffffffffffffffffffffffffffffffffffff16141580156114cf57508273ffffffffffffffffffffffffffffffffffffffff168173ffffffffffffffffffffffffffffffffffffffff1614155b80156114e257506114e08184610913565b155b1561152457826040517fa9fbf51f00000000000000000000000000000000000000000000000000000000815260040161151b9190611bfa565b60405180910390fd5b811561158657838573ffffffffffffffffffffffffffffffffffffffff168273ffffffffffffffffffffffffffffffffffffffff167f8c5be1e5ebec7d5bd14f71427d1e84f3dd0314c0f7b2291e5b200ac8c7c3b92560405160405180910390a45b505b836004600085815260200190815260200160002060006101000a81548173ffffffffffffffffffffffffffffffffffffffff021916908373ffffffffffffffffffffffffffffffffffffffff16021790555050505050565b6115eb83838361181b565b61169f57600073ffffffffffffffffffffffffffffffffffffffff168373ffffffffffffffffffffffffffffffffffffffff160361166057806040517f7e2732890000000000000000000000000000000000000000000000000000000081526004016116579190611d10565b60405180910390fd5b81816040517f177e802f00000000000000000000000000000000000000000000000000000000815260040161169692919061220f565b60405180910390fd5b505050565b6116ae83836118dc565b6116c36116b9610bb4565b60008585856110c2565b505050565b600080600090507a184f03e93ff9f4daa797ed6e38ed64bf6a1f0100000000000000008310611726577a184f03e93ff9f4daa797ed6e38ed64bf6a1f010000000000000000838161171c5761171b6121e0565b5b0492506040810190505b6d04ee2d6d415b85acef81000000008310611763576d04ee2d6d415b85acef81000000008381611759576117586121e0565b5b0492506020810190505b662386f26fc10000831061179257662386f26fc100008381611788576117876121e0565b5b0492506010810190505b6305f5e10083106117bb576305f5e10083816117b1576117b06121e0565b5b0492506008810190505b61271083106117e05761271083816117d6576117d56121e0565b5b0492506004810190505b6064831061180357606483816117f9576117f86121e0565b5b0492506002810190505b600a8310611812576001810190505b80915050919050565b60008073ffffffffffffffffffffffffffffffffffffffff168373ffffffffffffffffffffffffffffffffffffffff16141580156118d357508273ffffffffffffffffffffffffffffffffffffffff168473ffffffffffffffffffffffffffffffffffffffff16148061189457506118938484610913565b5b806118d257508273ffffffffffffffffffffffffffffffffffffffff166118ba83610b77565b73ffffffffffffffffffffffffffffffffffffffff16145b5b90509392505050565b600073ffffffffffffffffffffffffffffffffffffffff168273ffffffffffffffffffffffffffffffffffffffff160361194e5760006040517f64a0ae920000000000000000000000000000000000000000000000000000000081526004016119459190611bfa565b60405180910390fd5b600061195c83836000610bce565b9050600073ffffffffffffffffffffffffffffffffffffffff168173ffffffffffffffffffffffffffffffffffffffff16146119d05760006040517f73c6ac6e0000000000000000000000000000000000000000000000000000000081526004016119c79190611bfa565b60405180910390fd5b505050565b6000604051905090565b600080fd5b600080fd5b60007fffffffff0000000000000000000000000000000000000000000000000000000082169050919050565b611a1e816119e9565b8114611a2957600080fd5b50565b600081359050611a3b81611a15565b92915050565b600060208284031215611a5757611a566119df565b5b6000611a6584828501611a2c565b91505092915050565b60008115159050919050565b611a8381611a6e565b82525050565b6000602082019050611a9e6000830184611a7a565b92915050565b600081519050919050565b600082825260208201905092915050565b60005b83811015611ade578082015181840152602081019050611ac3565b60008484015250505050565b6000601f19601f8301169050919050565b6000611b0682611aa4565b611b108185611aaf565b9350611b20818560208601611ac0565b611b2981611aea565b840191505092915050565b60006020820190508181036000830152611b4e8184611afb565b905092915050565b6000819050919050565b611b6981611b56565b8114611b7457600080fd5b50565b600081359050611b8681611b60565b92915050565b600060208284031215611ba257611ba16119df565b5b6000611bb084828501611b77565b91505092915050565b600073ffffffffffffffffffffffffffffffffffffffff82169050919050565b6000611be482611bb9565b9050919050565b611bf481611bd9565b82525050565b6000602082019050611c0f6000830184611beb565b92915050565b611c1e81611bd9565b8114611c2957600080fd5b50565b600081359050611c3b81611c15565b92915050565b60008060408385031215611c5857611c576119df565b5b6000611c6685828601611c2c565b9250506020611c7785828601611b77565b9150509250929050565b600080600060608486031215611c9a57611c996119df565b5b6000611ca886828701611c2c565b9350506020611cb986828701611c2c565b9250506040611cca86828701611b77565b9150509250925092565b600060208284031215611cea57611ce96119df565b5b6000611cf884828501611c2c565b91505092915050565b611d0a81611b56565b82525050565b6000602082019050611d256000830184611d01565b92915050565b611d3481611a6e565b8114611d3f57600080fd5b50565b600081359050611d5181611d2b565b92915050565b60008060408385031215611d6e57611d6d6119df565b5b6000611d7c85828601611c2c565b9250506020611d8d85828601611d42565b9150509250929050565b600080fd5b600080fd5b7f4e487b7100000000000000000000000000000000000000000000000000000000600052604160045260246000fd5b611dd982611aea565b810181811067ffffffffffffffff82111715611df857611df7611da1565b5b80604052505050565b6000611e0b6119d5565b9050611e178282611dd0565b919050565b600067ffffffffffffffff821115611e3757611e36611da1565b5b611e4082611aea565b9050602081019050919050565b82818337600083830152505050565b6000611e6f611e6a84611e1c565b611e01565b905082815260208101848484011115611e8b57611e8a611d9c565b5b611e96848285611e4d565b509392505050565b600082601f830112611eb357611eb2611d97565b5b8135611ec3848260208601611e5c565b91505092915050565b60008060008060808587031215611ee657611ee56119df565b5b6000611ef487828801611c2c565b9450506020611f0587828801611c2c565b9350506040611f1687828801611b77565b925050606085013567ffffffffffffffff811115611f3757611f366119e4565b5b611f4387828801611e9e565b91505092959194509250565b60008060408385031215611f6657611f656119df565b5b6000611f7485828601611c2c565b9250506020611f8585828601611c2c565b9150509250929050565b7f4e487b7100000000000000000000000000000000000000000000000000000000600052602260045260246000fd5b60006002820490506001821680611fd657607f821691505b602082108103611fe957611fe8611f8f565b5b50919050565b60006060820190506120046000830186611beb565b6120116020830185611d01565b61201e6040830184611beb565b949350505050565b7f4e487b7100000000000000000000000000000000000000000000000000000000600052601160045260246000fd5b600061206082611b56565b91507fffffffffffffffffffffffffffffffffffffffffffffffffffffffffffffffff820361209257612091612026565b5b600182019050919050565b600081905092915050565b60006120b382611aa4565b6120bd818561209d565b93506120cd818560208601611ac0565b80840191505092915050565b60006120e582856120a8565b91506120f182846120a8565b91508190509392505050565b600081519050919050565b600082825260208201905092915050565b6000612124826120fd565b61212e8185612108565b935061213e818560208601611ac0565b61214781611aea565b840191505092915050565b60006080820190506121676000830187611beb565b6121746020830186611beb565b6121816040830185611d01565b81810360608301526121938184612119565b905095945050505050565b6000815190506121ad81611a15565b92915050565b6000602082840312156121c9576121c86119df565b5b60006121d78482850161219e565b91505092915050565b7f4e487b7100000000000000000000000000000000000000000000000000000000600052601260045260246000fd5b60006040820190506122246000830185611beb565b6122316020830184611d01565b939250505056fea2646970667358221220b5eedc17a7f7f07a1e7c7199f163bd68a58adfc470f558a2b53cfe3d0481ee1264736f6c634300081b0033a2646970667358221220f8a4e0f981566ee406f071f2be76e2ed0ec19644b417bd40cba961ea21679bdd64736f6c634300081b0033",
  "linkReferences": {},
  "deployedLinkReferences": {}
}